{
  "_format": "hh-sol-artifact-1",
  "contractName": "ElonNFT",
  "sourceName": "contracts/Elon.sol",
  "abi": [
    {
      "inputs": [],
      "stateMutability": "nonpayable",
      "type": "constructor"
    },
    {
      "anonymous": false,
      "inputs": [
        {
          "indexed": true,
          "internalType": "address",
          "name": "owner",
          "type": "address"
        },
        {
          "indexed": true,
          "internalType": "address",
          "name": "approved",
          "type": "address"
        },
        {
          "indexed": true,
          "internalType": "uint256",
          "name": "tokenId",
          "type": "uint256"
        }
      ],
      "name": "Approval",
      "type": "event"
    },
    {
      "anonymous": false,
      "inputs": [
        {
          "indexed": true,
          "internalType": "address",
          "name": "owner",
          "type": "address"
        },
        {
          "indexed": true,
          "internalType": "address",
          "name": "operator",
          "type": "address"
        },
        {
          "indexed": false,
          "internalType": "bool",
          "name": "approved",
          "type": "bool"
        }
      ],
      "name": "ApprovalForAll",
      "type": "event"
    },
    {
      "anonymous": false,
      "inputs": [
        {
          "indexed": true,
          "internalType": "address",
          "name": "from",
          "type": "address"
        },
        {
          "indexed": true,
          "internalType": "address",
          "name": "to",
          "type": "address"
        },
        {
          "indexed": true,
          "internalType": "uint256",
          "name": "tokenId",
          "type": "uint256"
        }
      ],
      "name": "Transfer",
      "type": "event"
    },
    {
      "inputs": [
        {
          "internalType": "address",
          "name": "to",
          "type": "address"
        },
        {
          "internalType": "uint256",
          "name": "tokenId",
          "type": "uint256"
        }
      ],
      "name": "approve",
      "outputs": [],
      "stateMutability": "nonpayable",
      "type": "function"
    },
    {
      "inputs": [
        {
          "internalType": "address",
          "name": "owner",
          "type": "address"
        }
      ],
      "name": "balanceOf",
      "outputs": [
        {
          "internalType": "uint256",
          "name": "",
          "type": "uint256"
        }
      ],
      "stateMutability": "view",
      "type": "function"
    },
    {
      "inputs": [
        {
          "internalType": "uint256",
          "name": "tokenId",
          "type": "uint256"
        }
      ],
      "name": "getApproved",
      "outputs": [
        {
          "internalType": "address",
          "name": "",
          "type": "address"
        }
      ],
      "stateMutability": "view",
      "type": "function"
    },
    {
      "inputs": [
        {
          "internalType": "address",
          "name": "owner",
          "type": "address"
        },
        {
          "internalType": "address",
          "name": "operator",
          "type": "address"
        }
      ],
      "name": "isApprovedForAll",
      "outputs": [
        {
          "internalType": "bool",
          "name": "",
          "type": "bool"
        }
      ],
      "stateMutability": "view",
      "type": "function"
    },
    {
      "inputs": [],
      "name": "mintNFT",
      "outputs": [
        {
          "internalType": "uint256",
          "name": "",
          "type": "uint256"
        }
      ],
      "stateMutability": "nonpayable",
      "type": "function"
    },
    {
      "inputs": [],
      "name": "name",
      "outputs": [
        {
          "internalType": "string",
          "name": "",
          "type": "string"
        }
      ],
      "stateMutability": "view",
      "type": "function"
    },
    {
      "inputs": [
        {
          "internalType": "uint256",
          "name": "tokenId",
          "type": "uint256"
        }
      ],
      "name": "ownerOf",
      "outputs": [
        {
          "internalType": "address",
          "name": "",
          "type": "address"
        }
      ],
      "stateMutability": "view",
      "type": "function"
    },
    {
      "inputs": [
        {
          "internalType": "address",
          "name": "from",
          "type": "address"
        },
        {
          "internalType": "address",
          "name": "to",
          "type": "address"
        },
        {
          "internalType": "uint256",
          "name": "tokenId",
          "type": "uint256"
        }
      ],
      "name": "safeTransferFrom",
      "outputs": [],
      "stateMutability": "nonpayable",
      "type": "function"
    },
    {
      "inputs": [
        {
          "internalType": "address",
          "name": "from",
          "type": "address"
        },
        {
          "internalType": "address",
          "name": "to",
          "type": "address"
        },
        {
          "internalType": "uint256",
          "name": "tokenId",
          "type": "uint256"
        },
        {
          "internalType": "bytes",
          "name": "data",
          "type": "bytes"
        }
      ],
      "name": "safeTransferFrom",
      "outputs": [],
      "stateMutability": "nonpayable",
      "type": "function"
    },
    {
      "inputs": [
        {
          "internalType": "address",
          "name": "operator",
          "type": "address"
        },
        {
          "internalType": "bool",
          "name": "approved",
          "type": "bool"
        }
      ],
      "name": "setApprovalForAll",
      "outputs": [],
      "stateMutability": "nonpayable",
      "type": "function"
    },
    {
      "inputs": [
        {
          "internalType": "bytes4",
          "name": "interfaceId",
          "type": "bytes4"
        }
      ],
      "name": "supportsInterface",
      "outputs": [
        {
          "internalType": "bool",
          "name": "",
          "type": "bool"
        }
      ],
      "stateMutability": "view",
      "type": "function"
    },
    {
      "inputs": [],
      "name": "symbol",
      "outputs": [
        {
          "internalType": "string",
          "name": "",
          "type": "string"
        }
      ],
      "stateMutability": "view",
      "type": "function"
    },
    {
      "inputs": [
        {
          "internalType": "uint256",
          "name": "tokenId",
          "type": "uint256"
        }
      ],
      "name": "tokenURI",
      "outputs": [
        {
          "internalType": "string",
          "name": "",
          "type": "string"
        }
      ],
      "stateMutability": "view",
      "type": "function"
    },
    {
      "inputs": [
        {
          "internalType": "address",
          "name": "from",
          "type": "address"
        },
        {
          "internalType": "address",
          "name": "to",
          "type": "address"
        },
        {
          "internalType": "uint256",
          "name": "tokenId",
          "type": "uint256"
        }
      ],
      "name": "transferFrom",
      "outputs": [],
      "stateMutability": "nonpayable",
      "type": "function"
    }
  ],
  "bytecode": "0x60806040523480156200001157600080fd5b506040518060400160405280600881526020017f456c6f6e4d75736b0000000000000000000000000000000000000000000000008152506040518060400160405280600481526020017f454c4f4e00000000000000000000000000000000000000000000000000000000815250816000908051906020019062000096929190620000b8565b508060019080519060200190620000af929190620000b8565b505050620001cd565b828054620000c69062000168565b90600052602060002090601f016020900481019282620000ea576000855562000136565b82601f106200010557805160ff191683800117855562000136565b8280016001018555821562000136579182015b828111156200013557825182559160200191906001019062000118565b5b50905062000145919062000149565b5090565b5b80821115620001645760008160009055506001016200014a565b5090565b600060028204905060018216806200018157607f821691505b602082108114156200019857620001976200019e565b5b50919050565b7f4e487b7100000000000000000000000000000000000000000000000000000000600052602260045260246000fd5b6128f080620001dd6000396000f3fe608060405234801561001057600080fd5b50600436106100ea5760003560e01c80636352211e1161008c578063a22cb46511610066578063a22cb4651461025d578063b88d4fde14610279578063c87b56dd14610295578063e985e9c5146102c5576100ea565b80636352211e146101df57806370a082311461020f57806395d89b411461023f576100ea565b8063095ea7b3116100c8578063095ea7b31461016d57806314f710fe1461018957806323b872dd146101a757806342842e0e146101c3576100ea565b806301ffc9a7146100ef57806306fdde031461011f578063081812fc1461013d575b600080fd5b61010960048036038101906101049190611bdb565b6102f5565b6040516101169190611f55565b60405180910390f35b6101276103d7565b6040516101349190611f70565b60405180910390f35b61015760048036038101906101529190611c2d565b610469565b6040516101649190611eee565b60405180910390f35b61018760048036038101906101829190611b9f565b6104af565b005b6101916105c7565b60405161019e9190612150565b60405180910390f35b6101c160048036038101906101bc9190611a99565b610654565b005b6101dd60048036038101906101d89190611a99565b6106b4565b005b6101f960048036038101906101f49190611c2d565b6106d4565b6040516102069190611eee565b60405180910390f35b61022960048036038101906102249190611a34565b610786565b6040516102369190612150565b60405180910390f35b61024761083e565b6040516102549190611f70565b60405180910390f35b61027760048036038101906102729190611b63565b6108d0565b005b610293600480360381019061028e9190611ae8565b6108e6565b005b6102af60048036038101906102aa9190611c2d565b610948565b6040516102bc9190611f70565b60405180910390f35b6102df60048036038101906102da9190611a5d565b610a5b565b6040516102ec9190611f55565b60405180910390f35b60007f80ac58cd000000000000000000000000000000000000000000000000000000007bffffffffffffffffffffffffffffffffffffffffffffffffffffffff1916827bffffffffffffffffffffffffffffffffffffffffffffffffffffffff191614806103c057507f5b5e139f000000000000000000000000000000000000000000000000000000007bffffffffffffffffffffffffffffffffffffffffffffffffffffffff1916827bffffffffffffffffffffffffffffffffffffffffffffffffffffffff1916145b806103d057506103cf82610aef565b5b9050919050565b6060600080546103e690612375565b80601f016020809104026020016040519081016040528092919081815260200182805461041290612375565b801561045f5780601f106104345761010080835404028352916020019161045f565b820191906000526020600020905b81548152906001019060200180831161044257829003601f168201915b5050505050905090565b600061047482610b59565b6004600083815260200190815260200160002060009054906101000a900473ffffffffffffffffffffffffffffffffffffffff169050919050565b60006104ba826106d4565b90508073ffffffffffffffffffffffffffffffffffffffff168373ffffffffffffffffffffffffffffffffffffffff16141561052b576040517f08c379a000000000000000000000000000000000000000000000000000000000815260040161052290612110565b60405180910390fd5b8073ffffffffffffffffffffffffffffffffffffffff1661054a610ba4565b73ffffffffffffffffffffffffffffffffffffffff161480610579575061057881610573610ba4565b610a5b565b5b6105b8576040517f08c379a00000000000000000000000000000000000000000000000000000000081526004016105af906120b0565b60405180910390fd5b6105c28383610bac565b505050565b60006105d36007610c65565b60006105df6007610c7b565b90506105eb3382610c89565b61062a816040518060400160405280601d81526020017f68747470733a2f2f6a736f6e6b65657065722e636f6d2f622f4c324f36000000815250610e63565b61064d604051806060016040528060238152602001612898602391398233610ed7565b8091505090565b61066561065f610ba4565b82610f76565b6106a4576040517f08c379a000000000000000000000000000000000000000000000000000000000815260040161069b90612130565b60405180910390fd5b6106af83838361100b565b505050565b6106cf838383604051806020016040528060008152506108e6565b505050565b6000806002600084815260200190815260200160002060009054906101000a900473ffffffffffffffffffffffffffffffffffffffff169050600073ffffffffffffffffffffffffffffffffffffffff168173ffffffffffffffffffffffffffffffffffffffff16141561077d576040517f08c379a0000000000000000000000000000000000000000000000000000000008152600401610774906120f0565b60405180910390fd5b80915050919050565b60008073ffffffffffffffffffffffffffffffffffffffff168273ffffffffffffffffffffffffffffffffffffffff1614156107f7576040517f08c379a00000000000000000000000000000000000000000000000000000000081526004016107ee90612070565b60405180910390fd5b600360008373ffffffffffffffffffffffffffffffffffffffff1673ffffffffffffffffffffffffffffffffffffffff168152602001908152602001600020549050919050565b60606001805461084d90612375565b80601f016020809104026020016040519081016040528092919081815260200182805461087990612375565b80156108c65780601f1061089b576101008083540402835291602001916108c6565b820191906000526020600020905b8154815290600101906020018083116108a957829003601f168201915b5050505050905090565b6108e26108db610ba4565b8383611272565b5050565b6108f76108f1610ba4565b83610f76565b610936576040517f08c379a000000000000000000000000000000000000000000000000000000000815260040161092d90612130565b60405180910390fd5b610942848484846113df565b50505050565b606061095382610b59565b600060066000848152602001908152602001600020805461097390612375565b80601f016020809104026020016040519081016040528092919081815260200182805461099f90612375565b80156109ec5780601f106109c1576101008083540402835291602001916109ec565b820191906000526020600020905b8154815290600101906020018083116109cf57829003601f168201915b5050505050905060006109fd61143b565b9050600081511415610a13578192505050610a56565b600082511115610a48578082604051602001610a30929190611eca565b60405160208183030381529060405292505050610a56565b610a5184611452565b925050505b919050565b6000600560008473ffffffffffffffffffffffffffffffffffffffff1673ffffffffffffffffffffffffffffffffffffffff16815260200190815260200160002060008373ffffffffffffffffffffffffffffffffffffffff1673ffffffffffffffffffffffffffffffffffffffff16815260200190815260200160002060009054906101000a900460ff16905092915050565b60007f01ffc9a7000000000000000000000000000000000000000000000000000000007bffffffffffffffffffffffffffffffffffffffffffffffffffffffff1916827bffffffffffffffffffffffffffffffffffffffffffffffffffffffff1916149050919050565b610b62816114ba565b610ba1576040517f08c379a0000000000000000000000000000000000000000000000000000000008152600401610b98906120f0565b60405180910390fd5b50565b600033905090565b816004600083815260200190815260200160002060006101000a81548173ffffffffffffffffffffffffffffffffffffffff021916908373ffffffffffffffffffffffffffffffffffffffff160217905550808273ffffffffffffffffffffffffffffffffffffffff16610c1f836106d4565b73ffffffffffffffffffffffffffffffffffffffff167f8c5be1e5ebec7d5bd14f71427d1e84f3dd0314c0f7b2291e5b200ac8c7c3b92560405160405180910390a45050565b6001816000016000828254019250508190555050565b600081600001549050919050565b600073ffffffffffffffffffffffffffffffffffffffff168273ffffffffffffffffffffffffffffffffffffffff161415610cf9576040517f08c379a0000000000000000000000000000000000000000000000000000000008152600401610cf0906120d0565b60405180910390fd5b610d02816114ba565b15610d42576040517f08c379a0000000000000000000000000000000000000000000000000000000008152600401610d3990612010565b60405180910390fd5b610d4e60008383611526565b6001600360008473ffffffffffffffffffffffffffffffffffffffff1673ffffffffffffffffffffffffffffffffffffffff1681526020019081526020016000206000828254610d9e9190612204565b92505081905550816002600083815260200190815260200160002060006101000a81548173ffffffffffffffffffffffffffffffffffffffff021916908373ffffffffffffffffffffffffffffffffffffffff160217905550808273ffffffffffffffffffffffffffffffffffffffff16600073ffffffffffffffffffffffffffffffffffffffff167fddf252ad1be2c89b69c2b068fc378daa952ba7f163c4a11628f55a4df523b3ef60405160405180910390a4610e5f6000838361152b565b5050565b610e6c826114ba565b610eab576040517f08c379a0000000000000000000000000000000000000000000000000000000008152600401610ea290612090565b60405180910390fd5b80600660008481526020019081526020016000209080519060200190610ed29291906118c0565b505050565b610f71838383604051602401610eef93929190611f92565b6040516020818303038152906040527fe3849f79000000000000000000000000000000000000000000000000000000007bffffffffffffffffffffffffffffffffffffffffffffffffffffffff19166020820180517bffffffffffffffffffffffffffffffffffffffffffffffffffffffff8381831617835250505050611530565b505050565b600080610f82836106d4565b90508073ffffffffffffffffffffffffffffffffffffffff168473ffffffffffffffffffffffffffffffffffffffff161480610fc45750610fc38185610a5b565b5b8061100257508373ffffffffffffffffffffffffffffffffffffffff16610fea84610469565b73ffffffffffffffffffffffffffffffffffffffff16145b91505092915050565b8273ffffffffffffffffffffffffffffffffffffffff1661102b826106d4565b73ffffffffffffffffffffffffffffffffffffffff1614611081576040517f08c379a000000000000000000000000000000000000000000000000000000000815260040161107890611ff0565b60405180910390fd5b600073ffffffffffffffffffffffffffffffffffffffff168273ffffffffffffffffffffffffffffffffffffffff1614156110f1576040517f08c379a00000000000000000000000000000000000000000000000000000000081526004016110e890612030565b60405180910390fd5b6110fc838383611526565b611107600082610bac565b6001600360008573ffffffffffffffffffffffffffffffffffffffff1673ffffffffffffffffffffffffffffffffffffffff1681526020019081526020016000206000828254611157919061228b565b925050819055506001600360008473ffffffffffffffffffffffffffffffffffffffff1673ffffffffffffffffffffffffffffffffffffffff16815260200190815260200160002060008282546111ae9190612204565b92505081905550816002600083815260200190815260200160002060006101000a81548173ffffffffffffffffffffffffffffffffffffffff021916908373ffffffffffffffffffffffffffffffffffffffff160217905550808273ffffffffffffffffffffffffffffffffffffffff168473ffffffffffffffffffffffffffffffffffffffff167fddf252ad1be2c89b69c2b068fc378daa952ba7f163c4a11628f55a4df523b3ef60405160405180910390a461126d83838361152b565b505050565b8173ffffffffffffffffffffffffffffffffffffffff168373ffffffffffffffffffffffffffffffffffffffff1614156112e1576040517f08c379a00000000000000000000000000000000000000000000000000000000081526004016112d890612050565b60405180910390fd5b80600560008573ffffffffffffffffffffffffffffffffffffffff1673ffffffffffffffffffffffffffffffffffffffff16815260200190815260200160002060008473ffffffffffffffffffffffffffffffffffffffff1673ffffffffffffffffffffffffffffffffffffffff16815260200190815260200160002060006101000a81548160ff0219169083151502179055508173ffffffffffffffffffffffffffffffffffffffff168373ffffffffffffffffffffffffffffffffffffffff167f17307eab39ab6107e8899845ad3d59bd9653f200f220920489ca2b5937696c31836040516113d29190611f55565b60405180910390a3505050565b6113ea84848461100b565b6113f684848484611559565b611435576040517f08c379a000000000000000000000000000000000000000000000000000000000815260040161142c90611fd0565b60405180910390fd5b50505050565b606060405180602001604052806000815250905090565b606061145d82610b59565b600061146761143b565b9050600081511161148757604051806020016040528060008152506114b2565b80611491846116f0565b6040516020016114a2929190611eca565b6040516020818303038152906040525b915050919050565b60008073ffffffffffffffffffffffffffffffffffffffff166002600084815260200190815260200160002060009054906101000a900473ffffffffffffffffffffffffffffffffffffffff1673ffffffffffffffffffffffffffffffffffffffff1614159050919050565b505050565b505050565b60008151905060006a636f6e736f6c652e6c6f679050602083016000808483855afa5050505050565b600061157a8473ffffffffffffffffffffffffffffffffffffffff1661189d565b156116e3578373ffffffffffffffffffffffffffffffffffffffff1663150b7a026115a3610ba4565b8786866040518563ffffffff1660e01b81526004016115c59493929190611f09565b602060405180830381600087803b1580156115df57600080fd5b505af192505050801561161057506040513d601f19601f8201168201806040525081019061160d9190611c04565b60015b611693573d8060008114611640576040519150601f19603f3d011682016040523d82523d6000602084013e611645565b606091505b5060008151141561168b576040517f08c379a000000000000000000000000000000000000000000000000000000000815260040161168290611fd0565b60405180910390fd5b805181602001fd5b63150b7a0260e01b7bffffffffffffffffffffffffffffffffffffffffffffffffffffffff1916817bffffffffffffffffffffffffffffffffffffffffffffffffffffffff1916149150506116e8565b600190505b949350505050565b60606000821415611738576040518060400160405280600181526020017f30000000000000000000000000000000000000000000000000000000000000008152509050611898565b600082905060005b6000821461176a578080611753906123d8565b915050600a82611763919061225a565b9150611740565b60008167ffffffffffffffff8111156117ac577f4e487b7100000000000000000000000000000000000000000000000000000000600052604160045260246000fd5b6040519080825280601f01601f1916602001820160405280156117de5781602001600182028036833780820191505090505b5090505b60008514611891576001826117f7919061228b565b9150600a856118069190612421565b60306118129190612204565b60f81b81838151811061184e577f4e487b7100000000000000000000000000000000000000000000000000000000600052603260045260246000fd5b60200101907effffffffffffffffffffffffffffffffffffffffffffffffffffffffffffff1916908160001a905350600a8561188a919061225a565b94506117e2565b8093505050505b919050565b6000808273ffffffffffffffffffffffffffffffffffffffff163b119050919050565b8280546118cc90612375565b90600052602060002090601f0160209004810192826118ee5760008555611935565b82601f1061190757805160ff1916838001178555611935565b82800160010185558215611935579182015b82811115611934578251825591602001919060010190611919565b5b5090506119429190611946565b5090565b5b8082111561195f576000816000905550600101611947565b5090565b600061197661197184612190565b61216b565b90508281526020810184848401111561198e57600080fd5b611999848285612333565b509392505050565b6000813590506119b08161283b565b92915050565b6000813590506119c581612852565b92915050565b6000813590506119da81612869565b92915050565b6000815190506119ef81612869565b92915050565b600082601f830112611a0657600080fd5b8135611a16848260208601611963565b91505092915050565b600081359050611a2e81612880565b92915050565b600060208284031215611a4657600080fd5b6000611a54848285016119a1565b91505092915050565b60008060408385031215611a7057600080fd5b6000611a7e858286016119a1565b9250506020611a8f858286016119a1565b9150509250929050565b600080600060608486031215611aae57600080fd5b6000611abc868287016119a1565b9350506020611acd868287016119a1565b9250506040611ade86828701611a1f565b9150509250925092565b60008060008060808587031215611afe57600080fd5b6000611b0c878288016119a1565b9450506020611b1d878288016119a1565b9350506040611b2e87828801611a1f565b925050606085013567ffffffffffffffff811115611b4b57600080fd5b611b57878288016119f5565b91505092959194509250565b60008060408385031215611b7657600080fd5b6000611b84858286016119a1565b9250506020611b95858286016119b6565b9150509250929050565b60008060408385031215611bb257600080fd5b6000611bc0858286016119a1565b9250506020611bd185828601611a1f565b9150509250929050565b600060208284031215611bed57600080fd5b6000611bfb848285016119cb565b91505092915050565b600060208284031215611c1657600080fd5b6000611c24848285016119e0565b91505092915050565b600060208284031215611c3f57600080fd5b6000611c4d84828501611a1f565b91505092915050565b611c5f816122bf565b82525050565b611c6e816122d1565b82525050565b6000611c7f826121c1565b611c8981856121d7565b9350611c99818560208601612342565b611ca28161250e565b840191505092915050565b6000611cb8826121cc565b611cc281856121e8565b9350611cd2818560208601612342565b611cdb8161250e565b840191505092915050565b6000611cf1826121cc565b611cfb81856121f9565b9350611d0b818560208601612342565b80840191505092915050565b6000611d246032836121e8565b9150611d2f8261251f565b604082019050919050565b6000611d476025836121e8565b9150611d528261256e565b604082019050919050565b6000611d6a601c836121e8565b9150611d75826125bd565b602082019050919050565b6000611d8d6024836121e8565b9150611d98826125e6565b604082019050919050565b6000611db06019836121e8565b9150611dbb82612635565b602082019050919050565b6000611dd36029836121e8565b9150611dde8261265e565b604082019050919050565b6000611df6602e836121e8565b9150611e01826126ad565b604082019050919050565b6000611e19603e836121e8565b9150611e24826126fc565b604082019050919050565b6000611e3c6020836121e8565b9150611e478261274b565b602082019050919050565b6000611e5f6018836121e8565b9150611e6a82612774565b602082019050919050565b6000611e826021836121e8565b9150611e8d8261279d565b604082019050919050565b6000611ea5602e836121e8565b9150611eb0826127ec565b604082019050919050565b611ec481612329565b82525050565b6000611ed68285611ce6565b9150611ee28284611ce6565b91508190509392505050565b6000602082019050611f036000830184611c56565b92915050565b6000608082019050611f1e6000830187611c56565b611f2b6020830186611c56565b611f386040830185611ebb565b8181036060830152611f4a8184611c74565b905095945050505050565b6000602082019050611f6a6000830184611c65565b92915050565b60006020820190508181036000830152611f8a8184611cad565b905092915050565b60006060820190508181036000830152611fac8186611cad565b9050611fbb6020830185611ebb565b611fc86040830184611c56565b949350505050565b60006020820190508181036000830152611fe981611d17565b9050919050565b6000602082019050818103600083015261200981611d3a565b9050919050565b6000602082019050818103600083015261202981611d5d565b9050919050565b6000602082019050818103600083015261204981611d80565b9050919050565b6000602082019050818103600083015261206981611da3565b9050919050565b6000602082019050818103600083015261208981611dc6565b9050919050565b600060208201905081810360008301526120a981611de9565b9050919050565b600060208201905081810360008301526120c981611e0c565b9050919050565b600060208201905081810360008301526120e981611e2f565b9050919050565b6000602082019050818103600083015261210981611e52565b9050919050565b6000602082019050818103600083015261212981611e75565b9050919050565b6000602082019050818103600083015261214981611e98565b9050919050565b60006020820190506121656000830184611ebb565b92915050565b6000612175612186565b905061218182826123a7565b919050565b6000604051905090565b600067ffffffffffffffff8211156121ab576121aa6124df565b5b6121b48261250e565b9050602081019050919050565b600081519050919050565b600081519050919050565b600082825260208201905092915050565b600082825260208201905092915050565b600081905092915050565b600061220f82612329565b915061221a83612329565b9250827fffffffffffffffffffffffffffffffffffffffffffffffffffffffffffffffff0382111561224f5761224e612452565b5b828201905092915050565b600061226582612329565b915061227083612329565b9250826122805761227f612481565b5b828204905092915050565b600061229682612329565b91506122a183612329565b9250828210156122b4576122b3612452565b5b828203905092915050565b60006122ca82612309565b9050919050565b60008115159050919050565b60007fffffffff0000000000000000000000000000000000000000000000000000000082169050919050565b600073ffffffffffffffffffffffffffffffffffffffff82169050919050565b6000819050919050565b82818337600083830152505050565b60005b83811015612360578082015181840152602081019050612345565b8381111561236f576000848401525b50505050565b6000600282049050600182168061238d57607f821691505b602082108114156123a1576123a06124b0565b5b50919050565b6123b08261250e565b810181811067ffffffffffffffff821117156123cf576123ce6124df565b5b80604052505050565b60006123e382612329565b91507fffffffffffffffffffffffffffffffffffffffffffffffffffffffffffffffff82141561241657612415612452565b5b600182019050919050565b600061242c82612329565b915061243783612329565b92508261244757612446612481565b5b828206905092915050565b7f4e487b7100000000000000000000000000000000000000000000000000000000600052601160045260246000fd5b7f4e487b7100000000000000000000000000000000000000000000000000000000600052601260045260246000fd5b7f4e487b7100000000000000000000000000000000000000000000000000000000600052602260045260246000fd5b7f4e487b7100000000000000000000000000000000000000000000000000000000600052604160045260246000fd5b6000601f19601f8301169050919050565b7f4552433732313a207472616e7366657220746f206e6f6e20455243373231526560008201527f63656976657220696d706c656d656e7465720000000000000000000000000000602082015250565b7f4552433732313a207472616e736665722066726f6d20696e636f72726563742060008201527f6f776e6572000000000000000000000000000000000000000000000000000000602082015250565b7f4552433732313a20746f6b656e20616c7265616479206d696e74656400000000600082015250565b7f4552433732313a207472616e7366657220746f20746865207a65726f2061646460008201527f7265737300000000000000000000000000000000000000000000000000000000602082015250565b7f4552433732313a20617070726f766520746f2063616c6c657200000000000000600082015250565b7f4552433732313a2061646472657373207a65726f206973206e6f74206120766160008201527f6c6964206f776e65720000000000000000000000000000000000000000000000602082015250565b7f45524337323155524953746f726167653a2055524920736574206f66206e6f6e60008201527f6578697374656e7420746f6b656e000000000000000000000000000000000000602082015250565b7f4552433732313a20617070726f76652063616c6c6572206973206e6f7420746f60008201527f6b656e206f776e6572206e6f7220617070726f76656420666f7220616c6c0000602082015250565b7f4552433732313a206d696e7420746f20746865207a65726f2061646472657373600082015250565b7f4552433732313a20696e76616c696420746f6b656e2049440000000000000000600082015250565b7f4552433732313a20617070726f76616c20746f2063757272656e74206f776e6560008201527f7200000000000000000000000000000000000000000000000000000000000000602082015250565b7f4552433732313a2063616c6c6572206973206e6f7420746f6b656e206f776e6560008201527f72206e6f7220617070726f766564000000000000000000000000000000000000602082015250565b612844816122bf565b811461284f57600080fd5b50565b61285b816122d1565b811461286657600080fd5b50565b612872816122dd565b811461287d57600080fd5b50565b61288981612329565b811461289457600080fd5b5056fe546865204e465420494420257320686173206265656e206d696e74656420746f202573a26469706673582212205e9db980b1e35556e678601feccd64a9c9d6a073c75f7855b577883a9e52680964736f6c63430008010033",
  "linkReferences": {},
  "deployedLinkReferences": {}
}